:100000000C94C1000C94E9000C94E9000C94E900F4
:100010000C94E9000C94E9000C94E9000C94E900BC
:100020000C94E9000C94E9000C94E9000C94E900AC
:100030000C94E9000C94E9000C94E9000C94E9009C
:100040000C94E9000C94E9000C94080E0C94E9005F
:100050000C94C80B0C94FA0B0C94E9000C94E90076
:100060000C94E9000C94E9000C9486030C94E900CC
:100070000C94E9000C94E9000C94E9000763423603
:10008000B79BD8A71A39685618AEBAAB558C1D3C29
:10009000B7CC5763BD6DEDFD753EF6177231BF00ED
:1000A0000000803F08000000BE922449123EABAA27
:1000B000AA2ABECDCCCC4C3E00000080BEABAAAA82
:1000C000AA3E00000000BF000000803F00000000CA
:1000D00000084178D3BB4387D1133D190E3CC3BD03
:1000E0004282AD2B3E68EC8276BED98FE1A93E4CB0
:1000F00080EFFFBE01C4FF7F3F0000000000000052
:1001000000020300000000000000050409080000D0
:1001100000000000000000000000000000000102DC
:1001200004081020408001020408102040800102D1
:1001300004081020408001020408102040800202C0
:10014000020202020202040404040404040403037D
:100150000303030303030101010101010101000085
:10016000200023002600290000002200250028008E
:100170002B0000002100240027002A0073019C02AC
:100180002A0C11241FBECFEFD0E1DEBFCDBF11E09E
:10019000A0E0B1E0ECEBFAE202C005900D92A83AC3
:1001A000B107D9F723E0A8EAB1E001C01D92A0345D
:1001B000B207E1F711E0C2E8D1E004C02297FE01E6
:1001C0000E944915CC37D107C9F70E94F90D0C944C
:1001D0005C150C94000026E040E052EC61E070E019
:1001E0008AE992E00E946C0B60E071E08AE992E09B
:1001F0000E94B80C61E083E10E94130F61E083E18B
:100200000E944C0F68EE73E080E090E00E94750E53
:1002100066E788EA91E00E94A00681110DC06CE0BB
:1002200071E08AE992E00E94B80C68EE73E080E029
:1002300090E00E94750EF9CF089560E471E08AE9BC
:1002400092E00E94AB0C88EA91E00E946907AB0142
:10025000BC0122E030E08AE992E00E94F60D6FE4F2
:1002600071E08AE992E00E94B80C63E571E08AE9E6
:1002700092E00E94AB0C88EA91E00E94E807AB0193
:10028000BC0122E030E08AE992E00E94F60D6FE5C1
:1002900071E08AE992E00E94B80C63E671E08AE9B5
:1002A00092E00E94AB0C40E050E56DE774E488EA10
:1002B00091E00E944D0AAB01BC0122E030E08AE9E6
:1002C00092E00E94F60D66E771E08AE992E00E94F2
:1002D000B80C8AE992E00E94B40C60ED77E080E00F
:1002E00090E00C94750E88EA91E00C9414058091CE
:1002F000060290E020910702821B91090895209147
:10030000070280910602281750F4E22FF0E0E85F20
:10031000FD4F808190E02F5F2093070208958FEFBB
:100320009FEF0895E091070280910602E81730F4EC
:10033000F0E0E85FFD4F808190E008958FEF9FEF40
:1003400008950895CF92DF92EF92FF920F931F933B
:10035000CF93DF937C01CB018A012091E20122231C
:1003600089F0EB016B01C40ED51ECC15DD0569F0DB
:100370006991D701ED91FC910190F081E02DC701C9
:100380000995F3CF642F0E945D03C801DF91CF91DF
:100390001F910F91FF90EF90DF90CF900895CF9332
:1003A000DF931F92CDB7DEB769832091E20122234C
:1003B000D1F02091E301203240F021E030E0FC0157
:1003C0003383228380E090E015C08091E401E82F20
:1003D000F0E0EB51FE4F998190838F5F8093E401B1
:1003E0008093E30105C061E0CE0101960E945D03A8
:1003F00081E090E00F90DF91CF910895FC0113828E
:10040000128248EE53E060E070E0448355836683D7
:1004100077838DE791E0918380830895109207029E
:10042000109206021092E4011092E3010C94A002D3
:1004300081E08093E201609305021092E401109242
:10044000E30108950F93062F21E04091E30165EE4B
:1004500071E0809105020E9406031092E40110925F
:10046000E3011092E2010F9108958F929F92AF9253
:10047000BF92CF92DF92EF92FF920F931F93CF9391
:10048000DF93EC01F62ED42E48015901EE2019F12C
:100490000E9418021E2D143008F013E01150B8F01D
:1004A000E881F98128E0129FB0011124A50194018F
:1004B00004C056954795379527956A95D2F7CA0196
:1004C000B9010190F081E02DCE010995E7CF60E000
:1004D000CE010E9422024D2D413208F040E22C2D27
:1004E00068E072E08F2D0E94BE0210920702809396
:1004F0000602DF91CF911F910F91FF90EF90DF9057
:10050000CF90BF90AF909F908F900895CF92EF9231
:100510000F931F93C22EE12C00E010E098010E947F
:1005200035021F910F91EF90CF90089521E00C9428
:10053000860261E00C94220286ED91E00C94FE01AB
:100540001092950281E0809393021092920261E0F2
:1005500081E10E944C0F61E080E10E944C0FE9EBC9
:10056000F0E080818E7F808380818D7F808380E238
:100570008093B80085E48093BC000895413208F070
:1005800043C0909195029111FCCF91E09093950218
:10059000209393022FEF2093280210926D02240FD4
:1005A00020936C029093940290919402880F892B6F
:1005B0008093940280919202813061F410929202B1
:1005C000809194028093BB008091BC0083FDF8CFA2
:1005D00085EC01C085EE8093BC008091950281304E
:1005E000E1F380916D02841710F440916D022EE6C4
:1005F00032E0FB01D9018A2F821B841718F48D91F8
:100600008193F9CF842F089580E008950F934132AC
:1006100008F04AC0909195029111FCCF92E090931E
:100620009502009393029FEF9093280210926D021F
:1006300040936C02FB016EE672E0DB019A2F961B81
:10064000941718F491919D93F9CF10929402909180
:100650009402880F892B80939402809192028130BA
:1006600061F410929202809194028093BB00809179
:10067000BC0083FDF8CF85EC01C085EE8093BC0003
:10068000222321F0809195028230E1F380912802AB
:100690008F3F61F080912802803251F080912802D2
:1006A000803341F483E007C081E005C080E003C0EF
:1006B00082E001C084E00F910895613298F42091A6
:1006C0009502243089F460934A02FC018CE492E0A4
:1006D000DC012A2F281B261718F421912D93F9CF1E
:1006E00080E0089581E0089582E0089585ED80938B
:1006F000BC008091BC0084FDFCCF1092950208954F
:1007000085EC8093BC001092950208951F920F9281
:100710000FB60F9211242F933F934F935F936F93D4
:100720007F938F939F93AF93BF93EF93FF938091AA
:10073000B900887F803609F49EC078F5883209F4C4
:100740005DC090F4803109F456C038F4882309F470
:10075000F5C0883009F44FC0F5C0883109F44EC0A7
:10076000803209F45FC0EEC0803409F46AC058F4E6
:10077000803309F457C0883309F0E4C0809328021D
:100780000E948003DFC0803509F44FC0883509F42A
:100790005DC0883409F0D6C0D3C0883909F4C4C01C
:1007A000A8F4883709F467C038F4883609F463C0C0
:1007B000803709F460C0C6C0883809F4B5C08039F4
:1007C00009F45FC0803809F0BDC05BC0803B09F40C
:1007D00083C038F4803A09F466C0883A09F47CC0D2
:1007E000B1C0803C09F4A4C0883C09F4A1C0883B96
:1007F00009F487C0A7C08091940210C090916D0247
:1008000080916C02981770F5E0916D0281E08E0F77
:1008100080936D02F0E0E259FD4F80818093BB0030
:1008200085EC83C0809328028BC0E0916D0281E04B
:100830008E0F80936D028091BB00F0E0E259FD4F76
:10084000808390916D0280916C026BC0E0916D028B
:1008500081E08E0F80936D028091BB00F0E0E25941
:10086000FD4F80838091930281116AC081E0809363
:10087000920284EA5EC083E080939502109229027E
:10088000CFCF80912902803208F04EC0E09129023A
:1008900081E08E0F809329028091BB00F0E0E65D3D
:1008A000FD4F8083BDCF0E9480038091290280325A
:1008B00030F4E0912902F0E0E65DFD4F1082609196
:1008C000290270E0E0918E02F0918F028AE292E0BC
:1008D00009951092290236C084E080939502109207
:1008E0004B0210924A02E0919002F0919102099518
:1008F00080914A02811105C081E080934A021092E2
:100900004C02E0914B0281E08E0F80934B02F0E0AD
:10091000E45BFD4F80818093BB0090914B028091FE
:100920004A02981708F47CCF85E88093BC000AC07F
:1009300085EC8093BC001092950204C010922802AE
:100940000E947603FF91EF91BF91AF919F918F919C
:100950007F916F915F914F913F912F910F900FBEBB
:100960000F901F901895CF93CFB7F894809199026C
:10097000811127C0E2E4F1E08491E2E2F1E0949198
:10098000E82FF0E0EE0FFF1FEE58FE4FA591B49157
:100990008C91892321F461E084E00E944C0F61E096
:1009A00084E00E94130F8CB580618CBD8CB580648F
:1009B0008CBD61E087E00E94130F61E085E00E943A
:1009C000130F809199028F5F80939902CFBFCF91CF
:1009D000089520919802222399F03FB7F89420912E
:1009E0009802213059F42DB3209396024DB32091F3
:1009F0009702209524232DBB3FBF02C0309396025F
:100A00008CBD9DBD089580919802882361F09FB7A9
:100A1000F8942091980280919602213019F48DBBB0
:100A20009FBF08958FBF0895FC018FEF8187828754
:100A3000838784870895AF92BF92DF92EF92FF92EF
:100A40000F931F93CF93DF931F92CDB7DEB75C0157
:100A5000D62EFC0184858F3F39F46EBD00000DB4A5
:100A600007FEFDCF8EB52AC007E010E040E0EE247F
:100A7000E394F12C440F60E0F501848549830E94E2
:100A80004C0F9701002E01C0220F0A94EAF76D2D3A
:100A90006223F50182850E944C0F61E0F501848597
:100AA0000E944C0FF50183850E94820F4981892B9A
:100AB00009F0416001501109E8F6842F0F90DF9191
:100AC000CF911F910F91FF90EF90DF90BF90AF906B
:100AD00008950F931F93CF93DF93EC01062F142FEC
:100AE00089858F3FB9F4688186ED91E00E941802F4
:100AF000602F86ED91E00E94CF01612F86ED91E09D
:100B00000E94CF0186ED91E0DF91CF911F910F916F
:100B10000C9499028C858F3F21F481E590E00E942E
:100B2000E90460E089850E944C0F602F6F77CE0149
:100B30000E941B05612FCE010E941B0561E0898583
:100B40000E944C0F8C858F3F31F4DF91CF911F9124
:100B50000F910C940305DF91CF911F910F91089590
:100B60001F93CF93DF93EC01162F89858F3FD1F42C
:100B7000688186ED91E00E941802612F86ED91E078
:100B80000E94CF0186ED91E00E94990241E06881C8
:100B900086ED91E00E94960286ED91E00E947F0131
:100BA000182F1EC08C858F3F21F481E590E00E94B4
:100BB000E90460E089850E944C0F612F6068CE01D6
:100BC0000E941B0560E0CE010E941B05182F61E00A
:100BD00089850E944C0F8C858F3F11F40E9403057C
:100BE000812FDF91CF911F9108950F931F93CF9382
:100BF000DF93EC01162F89858F3F19F5688186ED0B
:100C000091E00E941802612F86ED91E00E94CF01D1
:100C100086ED91E00E94990242E0688186ED91E0C4
:100C20000E94960286ED91E00E947F01C82F86ED1A
:100C300091E00E947F0100E010E01C2F082B192B8F
:100C400026C08C858F3F21F481E590E00E94E90465
:100C500060E089850E944C0F612F6068CE010E9480
:100C60001B0560E0CE010E941B05082F60E0CE014D
:100C70000E941B0510E0102F0027082B61E08985DA
:100C80000E944C0F8C858F3F11F40E940305C80110
:100C9000DF91CF911F910F9108950E94F50598273C
:100CA000892798270895CF93DF93EC0168E80E9485
:100CB0004D069E878D876AE8CE010E944D06988B6F
:100CC0008F876CE8CE010E944D069A8B898B6EE867
:100CD000CE010E944D069C8B8B8B60E9CE010E9459
:100CE0004D069E8B8D8B62E9CE010E944D06988F3A
:100CF0008F8B64E9CE010E944D069A8F898F66E939
:100D0000CE010E944D069C8F8B8F68E9CE010E9418
:100D10004D069E8F8D8F6AE9CE010E944D0698A3E5
:100D20008F8F6CE9CE010E944D069AA389A36EE9CC
:100D3000CE010E944D069CA38BA3DF91CF91089515
:100D4000CF93DF93EC01688389858F3F29F486ED8B
:100D500091E00E940E0218C061E00E944C0F61E019
:100D600089850E94130F8C858F3F19F40E94B3046C
:100D70000BC061E00E94130F61E08A850E94130F8F
:100D800060E08B850E94130F60EDCE010E94B005DC
:100D9000883551F4CE010E9453064FE364EFCE0133
:100DA0000E94690581E001C080E0DF91CF91089544
:100DB0008F929F92AF92BF92CF92DF92EF92FF926B
:100DC0001F93CF93DF93EC01162F89858F3F09F096
:100DD0003FC0688186ED91E00E941802612F86ED88
:100DE00091E00E94CF0186ED91E00E94990243E0DC
:100DF000688186ED91E00E94960286ED91E00E9466
:100E00007F014C01AA2497FCA094BA2CBA2CA92CDF
:100E1000982C882486ED91E00E947F016C01EE24DD
:100E2000D7FCE094FE2CC828D928EA28FB28FE2C01
:100E3000ED2CDC2CCC2486ED91E00E947F01AA27CA
:100E400097FDA095BA2FC82AD92AEA2AFB2A33C0CF
:100E50008C858F3F21F481E590E00E94E90460E0F9
:100E600089850E944C0F612F6068CE010E941B058E
:100E700060E0CE010E941B05C82ED12CE12CF12C84
:100E8000FE2CED2CDC2CCC2460E0CE010E941B0556
:100E9000C82AFE2CED2CDC2CCC2460E0CE010E9474
:100EA0001B05C82A61E089850E944C0F8C858F3F05
:100EB00011F40E940305C701B601DF91CF911F9184
:100EC000FF90EF90DF90CF90BF90AF909F908F906A
:100ED00008958F929F92AF92BF92CF92DF92EF923E
:100EE000FF92CF93DF93EC016AEF0E94D806CD8486
:100EF000DE84E12CF12C872E982EA92EBB24A7FC92
:100F0000BA948C189D08AE08BF089B01AC01F7E0AD
:100F10005595479537952795FA95D1F7CC0CDD1C5B
:100F2000EE1CFF1C2C193D094E095F09AF85B889DD
:100F30000E94BA136B017C01BBE0F594E794D7944F
:100F4000C794BA95D1F7A5019401C501B4010E94D7
:100F50007D139B01AC018CE05595479537952795FE
:100F60008A95D1F7A989BA890E94BA132EE095957E
:100F70008795779567952A95D1F7C60ED71EE81EF7
:100F8000F91ECD82DE82EF82F886A5E0B0E0A701EF
:100F900096010E94AF1360587F4F8F4F9F4F672F6E
:100FA000782F892F992787FD9A950E94AF1020E00E
:100FB00030E048EC52E40E941510DF91CF91FF9091
:100FC000EF90DF90CF90BF90AF909F908F9008955B
:100FD0002F923F924F925F926F927F928F929F9249
:100FE000AF92BF92CF92DF92EF92FF920F931F9337
:100FF000CF93DF93CDB7DEB7A3970FB6F894DEBFDC
:101000000FBECDBF9BA38AA30E94690767EF8AA189
:101010009BA10E94D8062B013C01EAA1FBA185817E
:101020009681A781B0856C017D01FF0CCC08DC2C7A
:1010300076019C01AD016C2D7C2D8C2D9C2D345F97
:1010400041405109610971098109910929873A874C
:101050004B875C871B014C0159016A017B018C01A4
:101060000E94C2132F8B388F498F5A8F6B8F7C8FC2
:101070008D8F9E8FAAA1BBA15D96BC91BF8FEAA167
:10108000FBA1F68DFD87AAA1BBA15B96BC91B8A37D
:10109000EAA1FBA1F48DFE87AAA1BBA15996BC9140
:1010A000B9A3EAA1FBA1F28DFF87AAA1BBA1569625
:1010B000BC9056975596AC901B2D110F110BC12E5D
:1010C000D12EE12EF12E012F29853A854B855C85A5
:1010D000B101C4010E94C2130CE00E94F2142983E2
:1010E000388B498B5A8B6B8B7C8B8D8B9E8BEAA1BB
:1010F000FBA1B08CA7881B2D110F110BC12ED12E77
:10110000E12EF12E012F2F89388D498D5A8D6B8D4F
:101110007C8D8D8D9E8D0E94C21308E00E940B1560
:10112000A980B888C988DA88EB88FC880D891E896F
:101130000E94291570588F4F9F4FAAA1BBA15396AB
:10114000ED91FC9154975F01C12CD12CE12CF12C35
:101150008701E983BA82CB82DC82ED82FE820F8333
:101160001887C12CD12CE12CF12C00E010E00E945A
:10117000C21301E20E940B152983388B498B5A8BCD
:101180006B8B7C8B8D8B9E8BA0E00E943B1509F4B2
:1011900068C1AF8C1D85110F110BBD84C12ED12EDE
:1011A000E12EF12E012F2F89388D498D5A8D6B8DAF
:1011B0007C8D8D8D9E8D0E94C2132D873F8B488F15
:1011C000598F6A8F7B8F8C8F9D8FA8A01E85110FE2
:1011D000110BBE84C12ED12EE12EF12E012F2985B7
:1011E0003A854B855C85B101C4010E94C21301E1BF
:1011F0000E94F21459016A017B018C012D853F89FF
:10120000488D598D6A8D7B8D8C8D9D8D0E94291501
:10121000F9014B875C871B014C0144E0759467948E
:10122000579447944A95D1F780E090E0A0E1B0E070
:1012300084199509A609B7096C017D01FF0CCC083A
:10124000DC2C76019C01AD016C2D7C2D8C2D9C2D10
:101250000FE10E94F2142901B42FA52F6D877E871C
:10126000782E692E29A19F85990F990B3F85492FCB
:10127000592F692F792F892F03E20E94F214590107
:101280006A017B018C019F014B855C85B101C40122
:101290000E94291559016A017B018C0192014B2F93
:1012A0005A2F6D857E85872D962D0E943215490116
:1012B000542E652EB62FA72FF82FE92F03E00E949A
:1012C000F2145401C52CD62CEB2EFA2E0F2F1E2F04
:1012D0000E94321559016A017B01782E192F03E013
:1012E0000E94F214072D0E94321503E00E94F214AE
:1012F0005401C52CD62CEB2EFA2E0F2F1E2F0E9438
:10130000321502E00E94F2140F2F0E94321501E004
:101310000E94F2140F2F0E943215A980B888C98844
:10132000DA88EB88FC880D891E890E941D142987A4
:101330003A874B875C8769837D878E879F870DE01F
:101340000E940B15922E832E742E652E562E472E3C
:10135000382E292EAAA1BBA194963C9194979396DE
:101360002C91932F990F990BA92CB82CC72CD62C04
:10137000E52CF42C032D122D492F592F692F792F8D
:10138000892F0E94C2130E94C21309E10E940B150B
:1013900059016A017B018C0129853A854B855C8561
:1013A00069817D858E859F850E94291519012A01F5
:1013B0003B014C01EAA1FBA132A121A1932F990F7E
:1013C000990BA984BA84CB84DC84E980FD840E85E2
:1013D0001F85492F592F692F792F892F0E94C213FA
:1013E00003E10E940B1559016A017B018C019101F7
:1013F000A201B301C4010E94291508E00E940B1547
:10140000522E632E742E852E962EF72FE82F492EFE
:10141000AAA1BBA190963C9190975F962C91932F97
:10142000990F990B492F592F692F792F892F04E094
:101430000E94F21459016A017B018C01252D362D81
:10144000472D582D692D7F2F8E2F942D0E94291501
:101450000E94A91020E030E040E85BE30E94B11157
:1014600003C060E070E0CB01A3960FB6F894DEBF36
:101470000FBECDBFDF91CF911F910F91FF90EF90E5
:10148000DF90CF90BF90AF909F908F907F906F90A4
:101490005F904F903F902F900895CF92DF92EF9200
:1014A000FF926A017B010E94E80720E030E048ECEF
:1014B00052E40E941510A70196010E94151021E028
:1014C0003EED42E45EE30E9414129B01AC0160E039
:1014D00070E080E89FE30E94AC0F20E03AE24DE22A
:1014E00057E40E94B111FF90EF90DF90CF900895E4
:1014F000FC01818D228D90E0805C9F4F821B9109C1
:101500008F7399270895FC01918D828D981731F082
:10151000828DE80FF11D858D90E008958FEF9FEF8C
:101520000895FC01918D828D981761F0828DDF0105
:10153000A80FB11D5D968C91928D9F5F9F73928FC6
:1015400090E008958FEF9FEF089580E29CE0892B53
:1015500041F080E090E0892B21F00E94200C811165
:101560000DC080E090E0892B71F080E090E0892B45
:1015700051F00E940000811104C008950E940000F3
:10158000F0CF0C9400000895FC01848DDF01A80FBA
:10159000B11DA35ABF4F2C91848D90E001968F739B
:1015A0009927848FA689B7892C93A089B1898C91BA
:1015B00080648C93938D848D981306C00288F38980
:1015C000E02D80818F7D80830895CF93DF93EC01A0
:1015D000888D8823C9F0EA89FB89808185FD05C053
:1015E000A889B9898C9186FD0FC00FB607FCF5CF8D
:1015F000808185FFF2CFA889B9898C9185FFEDCFD5
:10160000CE010E94C40AE7CFDF91CF910895CF9217
:10161000DF92FF920F931F93CF93DF931F92CDB76B
:10162000DEB76C0181E0D60158968C9358975B9693
:101630009C915B975C968C915C97981307C0509631
:10164000ED91FC915197808185FD2EC0F601038DAF
:1016500010E00F5F1F4F0F731127F02EF601848DDE
:10166000F81211C00FB607FCF9CFD6015096ED91D4
:10167000FC915197808185FFF1CFC60169830E945B
:10168000C40A6981EBCF838DE80FF11DE35AFF4F48
:101690006083D6015B960C935B975296ED91FC911B
:1016A0005397808180620CC0D6015696ED91FC91D3
:1016B000579760835096ED91FC915197808180649B
:1016C000808381E090E00F90DF91CF911F910F9187
:1016D000FF90DF90CF900895BF92CF92DF92EF926C
:1016E000FF92CF93DF93EC016A017B01B22E60E899
:1016F00074E88EE190E0A70196010E948D132150BD
:101700003109410951095695479537952795E8893B
:10171000F98982E08083211580E1380798F0E88913
:10172000F989108260E472E48FE090E0A7019601ED
:101730000E948D1321503109410951095695479551
:1017400037952795EC85FD853083EE85FF852083D1
:10175000188EEC89FD89B082EA89FB8980818061DD
:101760008083EA89FB89808188608083EA89FB899C
:10177000808180688083EA89FB8980818F7D808376
:10178000DF91CF91FF90EF90DF90CF90BF900895C1
:101790001F920F920FB60F9211242F938F939F9346
:1017A000EF93FF93E091AA02F091AB028081E09168
:1017B000B002F091B10282FD12C090818091B3021B
:1017C0008F5F8F732091B402821751F0E091B302C2
:1017D000F0E0E656FD4F958F8093B30201C0808103
:1017E000FF91EF919F918F912F910F900FBE0F90CE
:1017F0001F9018951F920F920FB60F9211242F93DE
:101800003F934F935F936F937F938F939F93AF9388
:10181000BF93EF93FF938AE992E00E94C40AFF917D
:10182000EF91BF91AF919F918F917F916F915F9158
:101830004F913F912F910F900FBE0F901F901895D1
:101840008AE992E00E94780A21E0892B09F420E0DD
:10185000822F089510929D0210929C0288EE93E0D0
:10186000A0E0B0E080939E0290939F02A093A0021C
:10187000B093A1028DE891E090939B0280939A022D
:1018800085EC90E09093A7028093A60284EC90E010
:101890009093A9028093A80280EC90E09093AB0211
:1018A0008093AA0281EC90E09093AD028093AC0209
:1018B00082EC90E09093AF028093AE0286EC90E0D1
:1018C0009093B1028093B0021092B3021092B402CE
:1018D0001092B5021092B6020895CF92DF92EF9265
:1018E000FF920F931F93CF93DF937C016A01EB016B
:1018F00000E010E00C151D0571F06991D701ED9124
:10190000FC910190F081E02DC7010995892B19F018
:101910000F5F1F4FEFCFC801DF91CF911F910F9144
:10192000FF90EF90DF90CF9008956115710581F0E1
:10193000DB010D900020E9F7AD0141505109461B34
:10194000570BDC01ED91FC910280F381E02D0994AD
:1019500080E090E008950C94950CDC01ED91FC91F1
:101960000190F081E02D099469E971E00C94950CE7
:101970000F931F93CF93DF93EC010E94950C8C0182
:10198000CE010E94B40C800F911FDF91CF911F9167
:101990000F9108958F929F92AF92BF92DF92EF9234
:1019A000FF920F931F93CF93DF93CDB7DEB7A1972D
:1019B0000FB6F894DEBF0FBECDBF7C01F42FD52E3D
:1019C000CB0119A2223008F42AE08E010F5D1F4FCF
:1019D000822E912CA12CB12C6F2F7D2DA50194016D
:1019E0000E948D13F22FD32ECA01015011096A30C3
:1019F00014F4E0E301C0E7E3E60FD801EC93232BF6
:101A0000242B252B49F7B801C7010E94950CA196FC
:101A10000FB6F894DEBF0FBECDBFDF91CF911F91FF
:101A20000F91FF90EF90DF90BF90AF909F908F90BD
:101A300008954F925F926F927F92BF92CF92DF9202
:101A4000EF92FF920F931F93CF93DF93EC016A0104
:101A50007B01B22E9A01AB01C701B6010E94601250
:101A6000882319F06CE971E027C026013701E8945A
:101A700077F82FEF3FEF4FE75FE7C301B2010E9416
:101A8000601281110DC02FEF3FEF4FE75FE7C301F9
:101A9000B2010E94111018161CF460EA71E00CC02B
:101AA0002FEF3FEF4FE75FE4C701B6010E94AD1192
:101AB000181694F464EA71E0CE01DF91CF911F9182
:101AC0000F91FF90EF90DF90CF90BF907F906F903D
:101AD0005F904F900C94950C2FEF3FEF4FE75FEC2A
:101AE000C701B6010E94111087FDE4CF20E030E06D
:101AF000A901C701B6010E94111087FF0AC06DE25B
:101B0000CE010E94AD0C8C01F7FAF094F7F8F09436
:101B100002C000E010E0712C60E070E080E09FE324
:101B20007B1441F020E030E040E251E40E941510C7
:101B30007394F6CF9B01AC01C701B6010E94AD0FB3
:101B40006B017C010E947D102B013C010E94AD10B5
:101B50009B01AC01C701B6010E94AC0F6B017C0177
:101B60002AE0B301A201CE010E94CA0C080F191F7E
:101B7000BB2031F06EE2CE010E94AD0C080F191FA0
:101B8000BB2029F120E030E040E251E4C701B6017A
:101B90000E94B1116B017C010E947D102B01612C10
:101BA000712C2AE0B301A201CE010E94CA0C080FD9
:101BB000191FC301B2010E94AD109B01AC01C70106
:101BC000B6010E94AC0F6B017C01BA94D9CFC80159
:101BD000DF91CF911F910F91FF90EF90DF90CF9009
:101BE000BF907F906F905F904F9008950C94190D67
:101BF00008950E94AF0E0E94F80D0E94EB00C5EA06
:101C0000DAE00E941D012097E1F30E94A50AF9CFB6
:101C10001F920F920FB60F9211242F933F938F9321
:101C20009F93AF93BF938091380390913903A09114
:101C30003A03B0913B033091370326E0230F2D3751
:101C400020F40296A11DB11D05C029E8230F0396BB
:101C5000A11DB11D2093370380933803909339035E
:101C6000A0933A03B0933B0380913C0390913D03D2
:101C7000A0913E03B0913F030196A11DB11D809339
:101C80003C0390933D03A0933E03B0933F03BF9169
:101C9000AF919F918F913F912F910F900FBE0F9019
:101CA0001F9018953FB7F89480913C0390913D03A5
:101CB000A0913E03B0913F0326B5A89B05C02F3FDE
:101CC00019F00196A11DB11D3FBF6627782F892FFE
:101CD0009A2F620F711D811D911D43E0660F771FC2
:101CE000881F991F4A95D1F708958F929F92AF92BE
:101CF000BF92CF92DF92EF92FF926B017C010E9424
:101D0000520E4B015C01C114D104E104F104F1F065
:101D10000E94AB0F0E94520E681979098A099B092B
:101D2000683E73408105910570F321E0C21AD10825
:101D3000E108F10888EE880E83E0981EA11CB11C12
:101D4000C114D104E104F10429F7DDCFFF90EF9035
:101D5000DF90CF90BF90AF909F908F900895789430
:101D600084B5826084BD84B5816084BD85B58260A0
:101D700085BD85B5816085BDEEE6F0E0808181603E
:101D80008083E1E8F0E0108280818260808380813E
:101D900081608083E0E8F0E0808181608083E1EB16
:101DA000F0E0808184608083E0EBF0E080818160FE
:101DB0008083EAE7F0E080818460808380818260B4
:101DC000808380818E7F8083808180688083109271
:101DD000C1000895843081F028F4823099F0833076
:101DE000A1F008958830A9F08930B9F08530D1F498
:101DF000809180008F7D03C0809180008F778093D9
:101E00008000089584B58F7702C084B58F7D84BD2E
:101E100008958091B0008F7703C08091B0008F7DCE
:101E20008093B0000895CF93DF9390E0FC01E25ED1
:101E3000FE4F2491FC01E25CFE4F8491882349F11E
:101E400090E0880F991FFC01EE58FE4FA591B491C8
:101E500088599E4FFC01C591D4919FB7611108C06C
:101E6000F8948C91209582238C93888182230AC0D8
:101E7000623051F4F8948C91322F309583238C93F7
:101E80008881822B888304C0F8948C91822B8C9358
:101E90009FBFDF91CF9108950F931F93CF93DF934F
:101EA0001F92CDB7DEB7282F30E0F901E250FF4F87
:101EB0008491F901E25EFE4F1491F901E25CFE4F5C
:101EC00004910023C9F0882321F069830E94EA0E5F
:101ED0006981E02FF0E0EE0FFF1FE859FE4FA5915A
:101EE000B4919FB7F8948C91611103C01095812330
:101EF00001C0812B8C939FBF0F90DF91CF911F91D9
:101F00000F910895CF93DF93282F30E0F901E2502D
:101F1000FF4F8491F901E25EFE4FD491F901E25C3A
:101F2000FE4FC491CC2391F081110E94EA0EEC2F58
:101F3000F0E0EE0FFF1FE25AFE4FA591B4912C91F5
:101F40002D2381E090E021F480E002C080E090E069
:101F5000DF91CF91089508955058BB27AA270ED03E
:101F6000C2C1B3D130F0B8D120F031F49F3F11F4A9
:101F70001EF498C10EF4E095E7FB8EC1E92FC4D1A1
:101F800080F3BA17620773078407950718F071F496
:101F90009EF5DCC10EF4E0950B2EBA2FA02D0B019F
:101FA000B90190010C01CA01A0011124FF27591B9E
:101FB00099F0593F50F4503E68F11A16F040A22FA4
:101FC000232F342F4427585FF3CF46953795279515
:101FD000A795F0405395C9F77EF41F16BA0B620B14
:101FE000730B840BBAF09150A1F0FF0FBB1F661F5B
:101FF000771F881FC2F70EC0BA0F621F731F841F9E
:1020000048F4879577956795B795F7959E3F08F0C3
:10201000B3CF9395880F08F09927EE0F9795879582
:10202000089516D108F481E008950CD05CC154D114
:1020300040F04BD130F021F45F3F19F02DC1511128
:1020400086C130C161D198F39923C9F35523B1F307
:10205000951B550BBB27AA2762177307840738F017
:102060009F5F5F4F220F331F441FAA1FA9F333D076
:102070000E2E3AF0E0E830D091505040E695001C2A
:10208000CAF729D0FE2F27D0660F771F881FBB1FE6
:10209000261737074807AB07B0E809F0BB0B802DC0
:1020A000BF01FF2793585F4F2AF09E3F510568F00C
:1020B000F3C04DC15F3FECF3983EDCF38695779516
:1020C0006795B795F7959F5FC9F7880F911D96950E
:1020D000879597F90895E1E0660F771F881FBB1F6A
:1020E000621773078407BA0720F0621B730B840B17
:1020F000BA0BEE1F88F7E09508950ED188F09F5730
:1021000090F0B92F9927B751A0F0D1F0660F771F43
:10211000881F991F1AF0BA95C9F712C0B13081F023
:1021200015D1B1E0089512C1672F782F8827B85FC5
:1021300039F0B93FCCF3869577956795B395D9F784
:102140003EF490958095709561957F4F8F4F9F4F8E
:10215000089597FB0EF4A9D03EC0E89409C097FB00
:102160003EF490958095709561957F4F8F4F9F4F6E
:102170009923A9F0F92F96E9BB279395F6958795B2
:1021800077956795B795F111F8CFFAF4BB0F11F475
:1021900060FF1BC06F5F7F4F8F4F9F4F16C088231C
:1021A00011F096E911C0772321F09EE8872F762F52
:1021B00005C0662371F096E8862F70E060E02AF093
:1021C0009A95660F771F881FDAF7880F969587957F
:1021D00097F90895E894F92F96EBFF2381F01216F2
:1021E00013061406440B9395F69587957795679596
:1021F00057954040FF23B9F71BC0992708958823BE
:1022000051F49850D2F7872B762F652F542F432FF8
:10221000322F20E0B1F3121613061406440B882364
:102220003AF09A95440F551F661F771F881FCAF70B
:1022300055234AF4440F551F11F460FF04C06F5F2B
:102240007F4F8F4F9F4F880F9695879597F90895E9
:10225000990F0008550FAA0BE0E8FEEF16161706B7
:10226000E807F907C0F012161306E407F50798F01F
:10227000621B730B840B950B39F40A2661F0232B38
:10228000242B252B21F408950A2609F4A140A695B4
:102290008FEF811D811D089597F99F6780E870E099
:1022A00060E008959FEF80EC08959095809570957B
:1022B000609550954095309521953F4F4F4F5F4F1A
:1022C0006F4F7F4F8F4F9F4F089500240A9416162B
:1022D000170618060906089500240A941216130614
:1022E000140605060895092E0394000C11F48823A2
:1022F00052F0BB0F40F4BF2B11F460FF04C06F5FBE
:102300007F4F8F4F9F4F089557FD9058440F551F93
:1023100059F05F3F71F04795880F97FB991F61F067
:102320009F3F79F087950895121613061406551FDE
:10233000F2CF4695F1DF08C0161617061806991F4A
:10234000F1CF86957105610508940895E894BB273F
:1023500066277727CB0197F908957ADF08F48FEF86
:1023600008950BD0C0CFB1DF28F0B6DF18F0952369
:1023700009F092CF97CF1124EACFC6DFA0F3959F43
:10238000D1F3950F50E0551F629FF001729FBB275C
:10239000F00DB11D639FAA27F00DB11DAA1F649F08
:1023A0006627B00DA11D661F829F2227B00DA11DBB
:1023B000621F739FB00DA11D621F839FA00D611D41
:1023C000221F749F3327A00D611D231F849F600D62
:1023D000211D822F762F6A2F11249F5750408AF09B
:1023E000E1F088234AF0EE0FFF1FBB1F661F771F27
:1023F000881F91505040A9F79E3F510570F04CCF77
:10240000A6CF5F3FECF3983EDCF386957795679512
:10241000B795F795E7959F5FC1F7FE2B880F911D44
:102420009695879597F90895FA01EE0FFF1F30965C
:102430002105310599F16115710561F48038BFE31B
:102440009B0749F168949038810561F08038BFEFAF
:102450009B0741F0992342F5FF3FE1053105210536
:1024600011F1E8940894E795D901AA2329F4AB2F38
:10247000BE2FF85FD0F310C0FF5F70F4A695E0F7B1
:10248000F73950F019F0FF3A38F49F779F930CD04A
:102490000F9007FC905808953EF004CF60E070E084
:1024A00080E89FE308954FE79F775F934F933F93B3
:1024B0002F93A2D02F913F914F915F9152DF09C08E
:1024C000C7DE880B990B089519F40EF0E5CE3ECFC8
:1024D000E9CE22DFC8F39638C0F707F80F92E894E8
:1024E0002BE33AEA48EB5FE74ADF0F920F920F9235
:1024F0004DB75EB70F92C0D0ECE7F0E016D04F9129
:102500005F91EF91FF91E595EE1FFF1F49F0FE5798
:10251000E0684427EE0F441FFA95E1F74195550B0B
:1025200032D00F9007FE26C00895DF93CF931F93FC
:102530000F93FF92EF92DF927B018C01689405C0AC
:10254000DA2EEF011ADFFE01E894A591259135916D
:1025500045915591AEF3EF0111DDFE019701A80100
:10256000DA9479F7DF90EF90FF900F911F91CF9160
:10257000DF9108959B01AC0160E070E080E89FE38B
:1025800054CD8ACEACC0C8DEE8F39923D9F3940FBA
:10259000511DBBF39150504094F059F0882332F014
:1025A000660F771F881F91505040C1F79E3F51051D
:1025B00044F7880F911D9695879597F908955F3F89
:1025C000ACF0983E9CF0BB27869577956795B795BC
:1025D00008F4B1609395C1F7BB0F58F711F460FF91
:1025E000E8CF6F5F7F4F8F4F9F4FE3CFB0CE0EF09E
:1025F00076C058CE689450CE8FDEC8F39923D1F3BD
:10260000C6F3DF93CF931F930F93FF92C92FDD275C
:1026100088232AF02197660F771F881FDAF720E0BA
:1026200030E040E85FEB9FE3883920F0803E30F0F7
:1026300021968F7792DCE4EAF0E003C08EDCE1EDD6
:10264000F0E073DF8B01BE01EC01FB2E6F577109C7
:102650007595771F880B990B82DD28E132E741E3FE
:102660005FE38BDEAF2D9801AE01FF900F911F91BC
:10267000CF91DF9183DC37CEFA01DC01AA0FBB1FBB
:102680009B01AC01BF5728F42227332744275078F9
:102690001FC0B75188F4AB2F002446953795279576
:1026A000011CA395D2F3002069F0220F331F441FB1
:1026B000B395DAF30DD050CC61307105A0E88A07EC
:1026C000B94630F49B01AC016627772788279078BC
:1026D000309621F0208331834283538308959F3FB6
:1026E00031F0915020F4879577956795B795880FCD
:1026F000911D9695879597F90895DB018F939F9388
:102700000E94AF13BF91AF91A29F800D911DA39F17
:10271000900DB29F900D11240895A1E21A2EAA1BCC
:10272000BB1BFD010DC0AA1FBB1FEE1FFF1FA21781
:10273000B307E407F50720F0A21BB30BE40BF50B7E
:10274000661F771F881F991F1A9469F76095709507
:10275000809590959B01AC01BD01CF0108950E9429
:102760004D15A59F900DB49F900DA49F800D911DB8
:1027700011240895B7FF0C94AF130E94AF13821B6E
:10278000930B0895DF93CF931F930F939A9DF02D92
:10279000219FF00D8B9DF00D8A9DE02DF10D039F83
:1027A000F00D029FE00DF11D4E9DE00DF11D5E9DAF
:1027B000F00D4F9DF00D7F936F93BF92AF925F939B
:1027C0004F93D5010E944D158B01AC01D7010E949A
:1027D0004D15EB01E80FF91FD6010E9412142F913D
:1027E0003F91D6010E944D15C60FD71FE81FF91F54
:1027F000AF91BF910E9412142F913F910E944D15ED
:10280000C60FD71FE81FF91FD6010E944D15E60F0E
:10281000F71F9801BE01CF0111240F911F91CF9195
:10282000DF9108950E944D15460F571FC81FD91FED
:1028300008F431960895689401C0E894F92FF12BBB
:1028400012F00C944F14A0E0B0E0E9E2F4E10C9433
:10285000C114092E059422F40E94AB14112392F4A2
:10286000F0E80F26FFEFE094F09400951095B094F7
:10287000C094D094A194BF0ACF0ADF0AEF0AFF0ADE
:102880000F0B1F0B0E945A1407FC0E94AB14CDB70C
:10289000DEB7ECE00C94DD14689401C0E8948F92EC
:1028A0009F92CF93DF930E945A14DF91CF919F9014
:1028B0008F90089588249924F401E401B0E49F9353
:1028C000AA279A158B049C04ED05FE05CF05D007B9
:1028D000A10798F4AD2FDC2FCF2FFE2FE92D982CD8
:1028E000892E982F872F762F652F542F432F322F25
:1028F0002227B85031F7BF9127C01B2EBF91BB27AD
:10290000220F331F441F551F661F771F881F991FF3
:10291000881C991CEE1FFF1FCC1FDD1FAA1FBB1FA9
:102920008A149B04EC05FD05CE05DF05A007B10761
:1029300048F08A189B08EC09FD09CE09DF09A00BB5
:10294000B10B21601A94E1F62EF49401AF01BE019F
:10295000CD01000C08956095709580959095309507
:102960004095509521953F4F4F4F5F4F6F4F7F4F91
:102970008F4F9F4F08952F923F924F925F926F9289
:102980007F928F929F92AF92BF92CF92DF92EF92FF
:10299000FF920F931F93CF93DF93CDB7DEB7CA1B80
:1029A000DB0B0FB6F894DEBF0FBECDBF09942A88AB
:1029B000398848885F846E847D848C849B84AA8453
:1029C000B984C884DF80EE80FD800C811B81AA81E0
:1029D000B981CE0FD11D0FB6F894DEBF0FBECDBFAB
:1029E000ED0108950F93083090F0982F872F762FE0
:1029F000652F542F432F322F22270850F4CF220F58
:102A0000331F441F551F661F771F881F991F0A9584
:102A1000B2F70F91089597FB10F8169400080F93E2
:102A2000083098F00850232F342F452F562F672F4A
:102A3000782F892F902DF4CF0594979587957795CA
:102A4000679557954795379527950A95AAF70F915A
:102A500008952A0D3B1D4C1D5D1D6E1D7F1D801FA1
:102A6000911F08952A193B094C095D096E097F09D8
:102A7000800B910B08950024A7FD00942A173005C0
:102A80004005500560057005800590050895EE0F1E
:102A9000FF1F0590F491E02D0994A29FB001B39F10
:102AA000C001A39F700D811D1124911DB29F700D57
:0C2AB000811D1124911D0895F894FFCFA2
:102ABC00424D50323830207465737400436F756C1E
:102ACC0064206E6F742066696E6420612076616C80
:102ADC00696420424D503238302073656E736F72CA
:102AEC002C20636865636B20776972696E672100BF
:102AFC0054656D7065726174757265203D2000209F
:102B0C002A43005072657373757265203D20002056
:102B1C00506100417070726F7820616C74697475CB
:102B2C006465203D2000206D0000000000CF01A254
:102B3C000177017F019201A10100000000070B6DDC
:102B4C000C780A910A830AE50A0D0A006E616E0080
:082B5C00696E66006F766600E9
:00000001FF
